{
  "contractName": "Adoption",
  "abi": [
    {
      "constant": true,
      "inputs": [],
      "name": "changeOldRAM",
      "outputs": [
        {
          "name": "",
          "type": "string"
        }
      ],
      "payable": false,
      "stateMutability": "view",
      "type": "function"
    },
    {
      "constant": true,
      "inputs": [],
      "name": "changeTime",
      "outputs": [
        {
          "name": "",
          "type": "string"
        }
      ],
      "payable": false,
      "stateMutability": "view",
      "type": "function"
    },
    {
      "constant": true,
      "inputs": [
        {
          "name": "",
          "type": "uint256"
        }
      ],
      "name": "adopters",
      "outputs": [
        {
          "name": "",
          "type": "address"
        }
      ],
      "payable": false,
      "stateMutability": "view",
      "type": "function"
    },
    {
      "constant": true,
      "inputs": [],
      "name": "changeDescription",
      "outputs": [
        {
          "name": "",
          "type": "string"
        }
      ],
      "payable": false,
      "stateMutability": "view",
      "type": "function"
    },
    {
      "constant": true,
      "inputs": [],
      "name": "changeNewRAM",
      "outputs": [
        {
          "name": "",
          "type": "string"
        }
      ],
      "payable": false,
      "stateMutability": "view",
      "type": "function"
    },
    {
      "constant": false,
      "inputs": [
        {
          "name": "petId",
          "type": "uint256"
        },
        {
          "name": "_descriptionField",
          "type": "string"
        },
        {
          "name": "_timeField",
          "type": "string"
        },
        {
          "name": "_newRAMField",
          "type": "string"
        },
        {
          "name": "_oldRAMField",
          "type": "string"
        }
      ],
      "name": "changeRequest",
      "outputs": [
        {
          "name": "",
          "type": "uint256"
        }
      ],
      "payable": false,
      "stateMutability": "nonpayable",
      "type": "function"
    },
    {
      "constant": false,
      "inputs": [],
      "name": "getAdopters",
      "outputs": [
        {
          "name": "",
          "type": "address[16]"
        }
      ],
      "payable": false,
      "stateMutability": "nonpayable",
      "type": "function"
    }
  ],
  "bytecode": "0x6060604052341561000f57600080fd5b6109ca8061001e6000396000f300606060405260043610610083576000357c0100000000000000000000000000000000000000000000000000000000900463ffffffff1680633c8b1e86146100885780633de4eb171461011657806342dcdd411461016757806343ae80d3146101f55780635d156669146102585780638171867d1461039b578063917c8d6b14610429575b600080fd5b341561009357600080fd5b61009b6104b7565b6040518080602001828103825283818151815260200191508051906020019080838360005b838110156100db5780820151818401526020810190506100c0565b50505050905090810190601f1680156101085780820380516001836020036101000a031916815260200191505b509250505060405180910390f35b341561012157600080fd5b610129610555565b6040518082601060200280838360005b83811015610154578082015181840152602081019050610139565b5050505090500191505060405180910390f35b341561017257600080fd5b61017a6105d6565b6040518080602001828103825283818151815260200191508051906020019080838360005b838110156101ba57808201518184015260208101905061019f565b50505050905090810190601f1680156101e75780820380516001836020036101000a031916815260200191505b509250505060405180910390f35b341561020057600080fd5b6102166004808035906020019091905050610674565b604051808273ffffffffffffffffffffffffffffffffffffffff1673ffffffffffffffffffffffffffffffffffffffff16815260200191505060405180910390f35b341561026357600080fd5b610385600480803590602001909190803590602001908201803590602001908080601f0160208091040260200160405190810160405280939291908181526020018383808284378201915050505050509190803590602001908201803590602001908080601f0160208091040260200160405190810160405280939291908181526020018383808284378201915050505050509190803590602001908201803590602001908080601f0160208091040260200160405190810160405280939291908181526020018383808284378201915050505050509190803590602001908201803590602001908080601f016020809104026020016040519081016040528093929190818152602001838380828437820191505050505050919050506106a9565b6040518082815260200191505060405180910390f35b34156103a657600080fd5b6103ae61077e565b6040518080602001828103825283818151815260200191508051906020019080838360005b838110156103ee5780820151818401526020810190506103d3565b50505050905090810190601f16801561041b5780820380516001836020036101000a031916815260200191505b509250505060405180910390f35b341561043457600080fd5b61043c61081c565b6040518080602001828103825283818151815260200191508051906020019080838360005b8381101561047c578082015181840152602081019050610461565b50505050905090810190601f1680156104a95780820380516001836020036101000a031916815260200191505b509250505060405180910390f35b60138054600181600116156101000203166002900480601f01602080910402602001604051908101604052809291908181526020018280546001816001161561010002031660029004801561054d5780601f106105225761010080835404028352916020019161054d565b820191906000526020600020905b81548152906001019060200180831161053057829003601f168201915b505050505081565b61055d6108ba565b60006010806020026040519081016040528092919082601080156105cc576020028201915b8160009054906101000a900473ffffffffffffffffffffffffffffffffffffffff1673ffffffffffffffffffffffffffffffffffffffff1681526020019060010190808311610582575b5050505050905090565b60118054600181600116156101000203166002900480601f01602080910402602001604051908101604052809291908181526020018280546001816001161561010002031660029004801561066c5780601f106106415761010080835404028352916020019161066c565b820191906000526020600020905b81548152906001019060200180831161064f57829003601f168201915b505050505081565b60008160108110151561068357fe5b016000915054906101000a900473ffffffffffffffffffffffffffffffffffffffff1681565b60008086101580156106bc575060078611155b15156106c757600080fd5b336000876010811015156106d757fe5b0160006101000a81548173ffffffffffffffffffffffffffffffffffffffff021916908373ffffffffffffffffffffffffffffffffffffffff160217905550846010908051906020019061072c9291906108f9565b5083601190805190602001906107439291906108f9565b50826012908051906020019061075a9291906108f9565b5081601390805190602001906107719291906108f9565b5085905095945050505050565b60108054600181600116156101000203166002900480601f0160208091040260200160405190810160405280929190818152602001828054600181600116156101000203166002900480156108145780601f106107e957610100808354040283529160200191610814565b820191906000526020600020905b8154815290600101906020018083116107f757829003601f168201915b505050505081565b60128054600181600116156101000203166002900480601f0160208091040260200160405190810160405280929190818152602001828054600181600116156101000203166002900480156108b25780601f10610887576101008083540402835291602001916108b2565b820191906000526020600020905b81548152906001019060200180831161089557829003601f168201915b505050505081565b610200604051908101604052806010905b600073ffffffffffffffffffffffffffffffffffffffff168152602001906001900390816108cb5790505090565b828054600181600116156101000203166002900490600052602060002090601f016020900481019282601f1061093a57805160ff1916838001178555610968565b82800160010185558215610968579182015b8281111561096757825182559160200191906001019061094c565b5b5090506109759190610979565b5090565b61099b91905b8082111561099757600081600090555060010161097f565b5090565b905600a165627a7a72305820353a0354b88ef0bc71dc77c574bc98b7817630561a3386e567abcc2eeac7c2000029",
  "source": "pragma solidity ^0.4.4;\r\n\r\ncontract Adoption {\r\n    address[16] public adopters;\r\n    string public changeDescription;\r\n    string public changeTime;\r\n    string public changeNewRAM;\r\n    string public changeOldRAM;\r\n    function changeRequest(uint petId, string _descriptionField, string _timeField, string _newRAMField, string _oldRAMField) public returns (uint) {\r\n        require (petId >=0 && petId <=7);\r\n        adopters[petId]= msg.sender;\r\n        changeDescription = _descriptionField;\r\n        changeTime = _timeField;\r\n        changeNewRAM = _newRAMField;\r\n        changeOldRAM = _oldRAMField;\r\n        return petId;\r\n    }\r\n\r\n    function getAdopters() public returns (address[16]) {\r\n        return adopters;\r\n    }\r\n}\r\n",
  "sourcePath": "C:\\Users\\suhas.nagaraju\\OneDrive - Accenture\\DCSC\\blockchain\\github_cmdb\\cmdb\\contracts\\Adoption.sol",
  "compiler": {
    "name": "solc",
    "version": "0.4.19+commit.c4cbbb05.Emscripten.clang"
  },
  "schemaVersion": "2.0.0",
  "updatedAt": "2018-05-02T08:32:53.806Z"
}